:100000000C942A000C9447000C9447000C94470071
:100010000C9447000C9447000C9447000C940C0778
:100020000C94D9060C94A6060C9447000C94470037
:100030000C9447000C9447000C9447000C94470024
:100040000C9447000C9447000C9447000C94470014
:100050000C94470011241FBECFE5D8E0DEBFCDBF12
:1000600010E0A0E6B0E0E8E7F9E202C005900D92EA
:10007000AC3CB107D9F710E0ACECB0E001C01D9288
:10008000A83DB107E1F70E9420120C94BA140C9419
:100090000000EF92FF920F931F937B018C0120E0F1
:1000A00030E040E05FE40E94490388238CF0C801FF
:1000B000B70120E030E040E05FE40E94C1010E940F
:1000C000A9039B01AC01205030404040504806C07D
:1000D000C801B7010E94A9039B01AC01B901CA0183
:1000E0001F910F91FF90EF900895A0E0B0E0EBE733
:1000F000F0E00C948314DC012B01FA019C91923006
:1001000008F439C1EB018881823008F433C194309E
:1001100069F4843009F02FC111969C91119789815F
:10012000981709F428C1A3ECB0E025C1843009F484
:1001300021C18230A9F4923009F01DC19A01AD01AC
:1001400088E0EA010990AE01E90109929E0181501F
:10015000C1F7E201898111969C918923818308C1AD
:10016000923009F407C112962D903C901397EB0141
:100170008A819B811496AD90BD90CD90DC901797AD
:10018000EC80FD800E811F819101281B390BB90184
:1001900037FF04C066277727621B730B6032710537
:1001A0000CF061C0121613066CF537014801062EDB
:1001B00004C096948794779467940A94D2F721E0C8
:1001C00030E040E050E004C0220F331F441F551FB1
:1001D0006A95D2F721503040404050402E213F21B7
:1001E00040235123211531054105510521F021E01E
:1001F00030E040E050E079018A01E628F72808293C
:1002000019293CC0232BD1F1260E371E350146019A
:10021000062E04C096948794779467940A94D2F734
:1002200021E030E040E050E004C0220F331F441FC3
:10023000551F6A95D2F721503040404050402A2146
:100240003B214C215D21211531054105510521F04E
:1002500021E030E040E050E059016A01A628B728CB
:10026000C828D9280BC0821593052CF01C01AA249C
:10027000BB24650103C0EE24FF24870111969C91E5
:10028000D20111968C91981709F445C0992339F041
:10029000A80197012A193B094C095D0906C0A6016E
:1002A00095012E193F09400B510B57FD08C01182D3
:1002B0003382228224833583468357831DC081E0A5
:1002C00081833382228288279927DC01821B930B4A
:1002D000A40BB50B84839583A683B7830DC0220F2F
:1002E000331F441F551F24833583468357838281E0
:1002F000938101979383828324813581468157813D
:10030000DA01C9010197A109B1098F5F9F4FAF4F72
:10031000BF4328F30BC0918333822282EA0CFB1C7B
:100320000C1D1D1DE482F5820683178383E0808304
:10033000248135814681578157FF1AC0C901AA27F8
:1003400097FDA095BA2F81709070A070B0705695EF
:10035000479537952795822B932BA42BB52B848318
:100360009583A683B7838281938101969383828349
:10037000DF0101C0D201CD01CDB7DEB7E2E10C94BF
:100380009F14A0E2B0E0E7ECF1E00C948F146983D5
:100390007A838B839C832D833E834F835887E9E048
:1003A000EE2EF12CEC0EFD1ECE010196B7010E943F
:1003B000D2048E010F5E1F4FCE010596B8010E9438
:1003C000D2048A8991E089278A8BC701B801AE01DE
:1003D000475E5F4F0E9475000E94FD03A096E6E015
:1003E0000C94AB14A0E2B0E0E8EFF1E00C948F14B1
:1003F00069837A838B839C832D833E834F835887C5
:10040000F9E0EF2EF12CEC0EFD1ECE010196B701A6
:100410000E94D2048E010F5E1F4FCE010596B801D7
:100420000E94D204C701B801AE01475E5F4F0E942F
:1004300075000E94FD03A096E6E00C94AB14A0E2C8
:10044000B0E0E5E2F2E00C94831469837A838B8355
:100450009C832D833E834F835887CE010196BE0136
:10046000675F7F4F0E94D204CE010596BE016F5E8A
:100470007F4F0E94D2049985923088F0898982301A
:10048000C8F0943019F4823051F404C0843029F457
:10049000923081F483EC90E0C6C0923049F420E0C1
:1004A0009A858A89981321E02A87CE010996BBC0D4
:1004B000823049F420E09A858A89981321E02A8BBA
:1004C000CE014196B0C02D843E844F8458886D88FB
:1004D0007E888F88988CEE24FF248701AA24BB2471
:1004E000650140E050E060E070E0E0E0F0E0C10174
:1004F00081709070892BE9F0E60CF71C081D191D1E
:100500009A01AB012A0D3B1D4C1D5D1D80E090E062
:10051000A0E0B0E0E614F7040805190520F481E036
:1005200090E0A0E0B0E0BA01A901480F591F6A1F8E
:100530007B1FAA0CBB1CCC1CDD1C97FE08C081E0F5
:1005400090E0A0E0B0E0A82AB92ACA2ADB2A3196B6
:10055000E032F10549F0660C771C881C991C569412
:10056000479437942794C3CFFA85EA892B893C892D
:100570008B859C85280F391F2E5F3F4F17C0CA01FE
:1005800081709070892B61F016950795F794E79428
:1005900080E090E0A0E0B0E8E82AF92A0A2B1B2BC3
:1005A00076956795579547952F5F3F4F77FDE7CF36
:1005B0000CC0440F551F661F771F17FD4160EE0CDE
:1005C000FF1C001F111F21503040403090E05907A0
:1005D00090E0690790E4790760F32B8F3C8FDB0193
:1005E000CA018F779070A070B07080349105A1051A
:1005F000B10561F447FD0AC0E114F10401051105DC
:1006000029F0405C5F4F6F4F7F4F40781A8EFE1786
:1006100011F081E08A8F4D8F5E8F6F8F78A383E01A
:10062000898FCE0149960E94FD03A096E2E10C94C9
:100630009F14A8E1B0E0EFE1F3E00C948F1469831C
:100640007A838B839C832D833E834F83588789E0F5
:10065000E82EF12CEC0EFD1ECE010196B7010E9492
:10066000D2048E010F5E1F4FCE010596B8010E9485
:10067000D2048985823040F08989823028F0C70110
:10068000B8010E944A0501C08FEF6896E6E00C941D
:10069000AB14A8E1B0E0EFE4F3E00C948F146983AD
:1006A0007A838B839C832D833E834F83588789E095
:1006B000E82EF12CEC0EFD1ECE010196B7010E9432
:1006C000D2048E010F5E1F4FCE010596B8010E9425
:1006D000D2048985823040F08989823028F0C701B0
:1006E000B8010E944A0501C08FEF6896E6E00C94BD
:1006F000AB14A8E1B0E0EFE7F3E00C948F1469834A
:100700007A838B839C832D833E834F83588789E034
:10071000E82EF12CEC0EFD1ECE010196B7010E94D1
:10072000D2048E010F5E1F4FCE010596B8010E94C4
:10073000D2048985823040F08989823028F0C7014F
:10074000B8010E944A0501C081E06896E6E00C9479
:10075000AB14ACE0B0E0EFEAF3E00C9493146983DF
:100760007A838B839C83CE010196BE016B5F7F4FA2
:100770000E94D2048D81823061F1823050F1843048
:1007800021F48E81882351F12EC02F81388537FDC9
:1007900020C06E812F3131051CF06623F9F023C093
:1007A0008EE190E0821B930B29853A854B855C8511
:1007B00004C056954795379527958A95D2F76623B5
:1007C000B1F050954095309521953F4F4F4F5F4F79
:1007D0000EC020E030E040E050E009C02FEF3FEFD6
:1007E0004FEF5FE704C020E030E040E050E8B9019F
:1007F000CA012C96E2E00C94AF14DF92EF92FF92C4
:100800000F931F93FC01E480F58006811781D1804E
:100810008081823048F480E090E0A0E1B0E0E82AF6
:10082000F92A0A2B1B2BA5C0843009F49FC0823003
:1008300021F4EE24FF24870105C0E114F104010531
:10084000110519F4E0E0F0E096C0628173819FEF3A
:10085000623879070CF05BC022E83FEF261B370BAC
:100860002A3131052CF020E030E040E050E02AC091
:10087000B801A701022E04C0769567955795479554
:100880000A94D2F781E090E0A0E0B0E004C0880FC5
:10089000991FAA1FBB1F2A95D2F70197A109B10979
:1008A0008E219F21A023B1230097A105B10521F03E
:1008B00081E090E0A0E0B0E09A01AB01282B392B59
:1008C0004A2B5B2BDA01C9018F779070A070B07052
:1008D00080349105A105B10539F427FF09C0205CDA
:1008E0003F4F4F4F5F4F04C0215C3F4F4F4F5F4F13
:1008F000E0E0F0E02030A0E03A07A0E04A07A0E402
:100900005A0710F0E1E0F0E079018A0127C0603871
:10091000710564F5FB01E158FF4FD801C7018F77DE
:100920009070A070B07080349105A105B10539F4C4
:10093000E7FE0DC080E490E0A0E0B0E004C08FE3EB
:1009400090E0A0E0B0E0E80EF91E0A1F1B1F17FFA1
:1009500005C016950795F794E794319687E01695AC
:100960000795F794E7948A95D1F705C0EE24FF2404
:100970008701EFEFF0E06E2F679566276795902F60
:100980009F77D794DD24D7948E2F8695492F462BB9
:10099000582F5D29B701CA011F910F91FF90EF9069
:1009A000DF900895FC01DB01408151812281622F9B
:1009B0006F7770E0221F2227221F9381892F880FD3
:1009C000822B282F30E0991F9927991F11969C930D
:1009D000119721153105A9F54115510561057105DD
:1009E00011F482E037C082E89FEF13969C938E93B8
:1009F00012979A01AB0167E0220F331F441F551F66
:100A00006A95D1F783E08C930DC0220F331F441FEA
:100A1000551F12968D919C911397019713969C9355
:100A20008E931297203080E0380780E0480780E4FA
:100A3000580758F314962D933D934D935C93179755
:100A400008952F3F310579F4411551056105710570
:100A500019F484E08C93089564FF03C081E08C93C3
:100A600012C01C9210C02F57304013963C932E9307
:100A7000129783E08C9387E0440F551F661F771F02
:100A80008A95D1F7706414964D935D936D937C9322
:100A9000179708951F93DC01FB019C91923008F495
:100AA00047C08081823008F443C0943051F41196DD
:100AB0001C91843099F58181682F70E0611B710968
:100AC0003FC0843021F0923031F48230B9F181811D
:100AD000882389F12DC011961C9111978230F1F075
:100AE00081811817D9F412962D913C911397828128
:100AF00093818217930794F028173907BCF0149656
:100B00008D919D910D90BC91A02D248135814681C0
:100B10005781281739074A075B0718F4112341F05A
:100B20000AC082179307A407B50740F4112319F0F0
:100B300061E070E005C06FEF7FEF02C060E070E041
:100B4000CB011F910895DF93CF93CDB7DEB7AFE40C
:100B5000B0E0EFE4F0E080818E7F8C93AFE4B0E012
:100B6000EFE4F0E0808182608C93AEE4B0E0EEE4EC
:100B7000F0E0808188608C93AEE4B0E0EEE4F0E0D9
:100B8000808180618C93AFE4B0E0EFE4F0E080819D
:100B90008F7B8C93AFE4B0E0EFE4F0E0808180687D
:100BA0008C93AFE4B0E0EFE4F0E080818F7E8C9333
:100BB000AFE4B0E0EFE4F0E0808180628C93AEE4DB
:100BC000B0E0EEE4F0E08081887F8C93AEE4B0E0AA
:100BD000EEE4F0E080818E7F8C93AEE4B0E0EEE452
:100BE000F0E0808182608C93AEE4B0E0EEE4F0E06F
:100BF00080818B7F8C93CF91DF910895DF93CF938A
:100C000000D0CDB7DEB79A83898389819A8190938A
:100C1000CD008093CC000F900F90CF91DF9108957D
:100C2000DF93CF9300D0CDB7DEB79A8389838981D4
:100C30009A819093CF008093CE000F900F90CF9128
:100C4000DF910895DF93CF9300D0CDB7DEB79A83BD
:100C5000898389819A819093D1008093D0000F90ED
:100C60000F90CF91DF910895DF93CF9300D0CDB750
:100C7000DEB79A8389830F900F90CF91DF9108950B
:100C8000DF93CF9300D0CDB7DEB79A838983EAE4B0
:100C9000F0E089819A819183808389819A81909300
:100CA000D5008093D4000F900F90CF91DF910895DD
:100CB000DF93CF9300D0CDB7DEB79A838983E8E482
:100CC000F0E089819A819183808389819A819093D0
:100CD000D7008093D6000F900F90CF91DF910895A9
:100CE000DF93CF9300D000D0CDB7DEB79A8389834E
:100CF0007C836B8389819A810E944006E6E4F0E060
:100D00008B819C81918380830F900F900F900F9027
:100D1000CF91DF910895DF93CF9300D000D0CDB76E
:100D2000DEB79A8389837C836B8389819A810E9451
:100D30005806E6E4F0E08B819C81918380830F90DC
:100D40000F900F900F90CF91DF9108951F920F9207
:100D50000FB60F9211242F933F934F935F936F938E
:100D60007F938F939F93AF93BF93EF93FF93DF9303
:100D7000CF93CDB7DEB78091CC009091CD00009796
:100D800029F0E091CC00F091CD000995CF91DF9151
:100D9000FF91EF91BF91AF919F918F917F916F9153
:100DA0005F914F913F912F910F900FBE0F901F9029
:100DB00018951F920F920FB60F9211242F933F9305
:100DC0004F935F936F937F938F939F93AF93BF9353
:100DD000EF93FF93DF93CF93CDB7DEB78091D00031
:100DE0009091D100009729F0E091D000F091D100CE
:100DF0000995CF91DF91FF91EF91BF91AF919F91B5
:100E00008F917F916F915F914F913F912F910F90B3
:100E10000FBE0F901F9018951F920F920FB60F9252
:100E200011242F933F934F935F936F937F938F93EF
:100E30009F93AF93BF93EF93FF93DF93CF93CDB780
:100E4000DEB78091CE009091CF00009729F0E0911D
:100E5000CE00F091CF000995CF91DF91FF91EF91F6
:100E6000BF91AF919F918F917F916F915F914F91C2
:100E70003F912F910F900FBE0F901F901895DF9309
:100E8000CF93CDB7DEB7AFE5B0E0EFE5F0E080811E
:100E900080688C93CF91DF910895DF93CF93CDB786
:100EA000DEB7AFE5B0E0EFE5F0E080818F778C93BF
:100EB000CF91DF910895DF93CF93CDB7DEB7299718
:100EC0000FB6F894DEBF0FBECDBF89836A834B8314
:100ED0008981843008F0F6C08A81883008F0F2C039
:100EE0008B81282F30E0398728878885998500975E
:100EF00039F0288539852130310509F475C0E2C003
:100F00008981282F30E03F832E838E819F8181301D
:100F1000910559F12E813F81223031052CF48E81CB
:100F20009F81009769F0CEC02E813F81223031052C
:100F300089F18E819F818330910509F440C0C2C040
:100F4000AAE3B0E0EAE3F0E08081482F8A81282F0D
:100F500030E081E090E0022E02C0880F991F0A94D1
:100F6000E2F7809584238C93ADC0A7E3B0E0E7E37C
:100F7000F0E08081482F8A81282F30E081E090E0E6
:100F8000022E02C0880F991F0A94E2F780958423ED
:100F90008C9398C0A4E3B0E0E4E3F0E08081482FB4
:100FA0008A81282F30E081E090E0022E02C0880F75
:100FB000991F0A94E2F7809584238C9383C0A1E360
:100FC000B0E0E1E3F0E08081482F8A81282F30E013
:100FD00081E090E0022E02C0880F991F0A94E2F788
:100FE000809584238C936EC08981282F30E03D83C7
:100FF0002C838C819D818130910549F12C813D812B
:10100000223031052CF48C819D81009761F05AC00B
:101010002C813D812230310571F18C819D8183309D
:101020009105E9F14FC0AAE3B0E0EAE3F0E0808186
:10103000482F8A81282F30E081E090E0022E02C004
:10104000880F991F0A94E2F7842B8C933BC0A7E387
:10105000B0E0E7E3F0E08081482F8A81282F30E07C
:1010600081E090E0022E02C0880F991F0A94E2F7F7
:10107000842B8C9327C0A4E3B0E0E4E3F0E080810C
:10108000482F8A81282F30E081E090E0022E02C0B4
:10109000880F991F0A94E2F7842B8C9313C0A1E365
:1010A000B0E0E1E3F0E08081482F8A81282F30E032
:1010B00081E090E0022E02C0880F991F0A94E2F7A7
:1010C000842B8C9329960FB6F894DEBF0FBECDBF4C
:1010D000CF91DF910895DF93CF93CDB7DEB72897F7
:1010E0000FB6F894DEBF0FBECDBF89836A838981B6
:1010F000843008F070C08A81282F30E038872F8331
:101100008F819885009731F02F8138852130310506
:1011100081F161C08981282F30E03E832D838D814C
:101120009E8181309105C9F02D813E8122303105AB
:101130002CF48D819E81009761F04DC02D813E8100
:101140002230310571F08D819E818330910569F0E7
:1011500042C0EAE3F0E010823EC0E7E3F0E0108234
:101160003AC0E4E3F0E0108236C0E1E3F0E0108240
:1011700032C08981282F30E03C832B838B819C8176
:1011800081309105D1F02B813C81223031052CF446
:101190008B819C81009761F01EC02B813C812230A5
:1011A000310581F08B819C818330910581F013C0E2
:1011B000EAE3F0E08FEF80830EC0E7E3F0E08FEF2B
:1011C000808309C0E4E3F0E08FEF808304C0E1E3B3
:1011D000F0E08FEF808328960FB6F894DEBF0FBE45
:1011E000CDBFCF91DF910895DF93CF9300D000D092
:1011F000CDB7DEB789836A838981843090F5898190
:10120000282F30E03C832B838B819C81813091059A
:10121000D1F02B813C81223031052CF48B819C81D3
:10122000009761F01EC02B813C812230310581F096
:101230008B819C818330910581F013C0EAE3F0E05B
:101240008A8180830EC0E7E3F0E08A81808309C051
:10125000E4E3F0E08A81808304C0E1E3F0E08A8186
:1012600080830F900F900F900F90CF91DF91089592
:10127000DF93CF93CDB7DEB729970FB6F894DEBFD3
:101280000FBECDBF89836A834B838981843008F088
:10129000F6C08A81883008F0F2C08B81282F30E0B8
:1012A0003987288788859985009739F02885398579
:1012B0002130310509F475C0E2C08981282F30E062
:1012C0003F832E838E819F818130910559F12E813C
:1012D0003F81223031052CF48E819F81009769F087
:1012E000CEC02E813F812230310589F18E819F81D0
:1012F0008330910509F440C0C2C0ABE3B0E0EBE33A
:10130000F0E08081482F8A81282F30E081E090E052
:10131000022E02C0880F991F0A94E2F78095842359
:101320008C93ADC0A8E3B0E0E8E3F0E08081482F03
:101330008A81282F30E081E090E0022E02C0880FE1
:10134000991F0A94E2F7809584238C9398C0A5E3B3
:10135000B0E0E5E3F0E08081482F8A81282F30E07B
:1013600081E090E0022E02C0880F991F0A94E2F7F4
:10137000809584238C9383C0A2E3B0E0E2E3F0E0A5
:101380008081482F8A81282F30E081E090E0022E72
:1013900002C0880F991F0A94E2F7809584238C93EA
:1013A0006EC08981282F30E03D832C838C819D8104
:1013B0008130910549F12C813D81223031052CF499
:1013C0008C819D81009761F05AC02C813D81223033
:1013D000310571F18C819D8183309105E9F14FC018
:1013E000ABE3B0E0EBE3F0E08081482F8A81282F67
:1013F00030E081E090E0022E02C0880F991F0A942D
:10140000E2F7842B8C933BC0A8E3B0E0E8E3F0E084
:101410008081482F8A81282F30E081E090E0022EE1
:1014200002C0880F991F0A94E2F7842B8C9327C07F
:10143000A5E3B0E0E5E3F0E08081482F8A81282F22
:1014400030E081E090E0022E02C0880F991F0A94DC
:10145000E2F7842B8C9313C0A2E3B0E0E2E3F0E068
:101460008081482F8A81282F30E081E090E0022E91
:1014700002C0880F991F0A94E2F7842B8C93299657
:101480000FB6F894DEBF0FBECDBFCF91DF910895A8
:10149000DF93CF9300D000D0CDB7DEB789836A83C6
:1014A0008981843090F58981282F30E03C832B831B
:1014B0008B819C8181309105D1F02B813C81223040
:1014C00031052CF48B819C81009761F01EC02B812B
:1014D0003C812230310581F08B819C8183309105E4
:1014E00081F013C0EBE3F0E08A8180830EC0E8E373
:1014F000F0E08A81808309C0E5E3F0E08A8180839F
:1015000004C0E2E3F0E08A8180830F900F900F9097
:101510000F90CF91DF910895DF93CF9300D000D04B
:101520000F92CDB7DEB78A836B838A81843008F04F
:101530009DC08B81883008F099C08A81282F30E0C7
:101540003D832C834C815D8141305105B1F18C810B
:101550009D818230910534F42C813D812115310526
:1015600071F084C04C815D814230510509F443C063
:101570008C819D818330910509F45BC077C0E9E3DC
:10158000F0E08081482F50E08B81282F30E081E00F
:1015900090E002C0880F991F2A95E2F79A0128234C
:1015A00039238B81882F90E0A90102C0559547957A
:1015B0008A95E2F7CA01898359C0E6E3F0E08081A9
:1015C000482F50E08B81282F30E081E090E002C06E
:1015D000880F991F2A95E2F79A01282339238B81D6
:1015E000882F90E0A90102C0559547958A95E2F7AA
:1015F000CA0189833BC0E3E3F0E08081482F50E0DB
:101600008B81282F30E081E090E002C0880F991F85
:101610002A95E2F79A01282339238B81882F90E0BD
:10162000A90102C0559547958A95E2F7CA018983B9
:101630001DC0E0E3F0E08081482F50E08B81282F2F
:1016400030E081E090E002C0880F991F2A95E2F710
:101650009A01282339238B81882F90E0A90102C0A9
:10166000559547958A95E2F7CA01898389810F903C
:101670000F900F900F900F90CF91DF910895DF930F
:10168000CF9300D000D0CDB7DEB78A838A81843073
:1016900090F58A81282F30E03C832B838B819C81BD
:1016A00081309105D1F02B813C81223031052CF421
:1016B0008B819C81009761F01EC02B813C81223080
:1016C000310581F08B819C818330910581F013C0BD
:1016D000E9E3F0E0808189830EC0E6E3F0E08081F9
:1016E000898309C0E3E3F0E08081898304C0E0E3FB
:1016F000F0E08081898389810F900F900F900F9087
:10170000CF91DF910895DF93CF9300D000D0CDB774
:10171000DEB789836A838981843008F072C08A8148
:10172000883008F06EC08981282F30E03C832B83FD
:101730008B819C818130910549F12B813C81223044
:1017400031052CF48B819C81009761F05AC02B816C
:101750003C812230310571F18B819C818330910570
:10176000E9F14FC0ABE3B0E0EBE3F0E08081482F5C
:101770008A81282F30E081E090E0022E02C0880F9D
:10178000991F0A94E2F784278C933BC0A8E3B0E04A
:10179000E8E3F0E08081482F8A81282F30E081E063
:1017A00090E0022E02C0880F991F0A94E2F7842766
:1017B0008C9327C0A5E3B0E0E5E3F0E08081482FFB
:1017C0008A81282F30E081E090E0022E02C0880F4D
:1017D000991F0A94E2F784278C9313C0A2E3B0E028
:1017E000E2E3F0E08081482F8A81282F30E081E019
:1017F00090E0022E02C0880F991F0A94E2F7842716
:101800008C930F900F900F900F90CF91DF910895D0
:10181000DF93CF9300D00F92CDB7DEB78983898154
:10182000843008F03EC08981282F30E03B832A8332
:101830008A819B8181309105E9F02A813B812230A8
:1018400031052CF48A819B81009761F02AC02A819E
:101850003B8122303105B1F08A819B818330910533
:10186000C9F01FC0ABE3B0E0EBE3F0E0808180950E
:101870008C9317C0A8E3B0E0E8E3F0E080818095A6
:101880008C930FC0A5E3B0E0E5E3F0E080818095A4
:101890008C9307C0A2E3B0E0E2E3F0E080818095A2
:1018A0008C930F900F900F90CF91DF910895DF935D
:1018B000CF9300D000D00F92CDB7DEB789836A8373
:1018C0004B8389818430E0F48A818830C8F48B812D
:1018D000282F30E03D832C838C819D81009759F027
:1018E0002C813D812130310559F489816A8141E0A3
:1018F0000E94380905C089816A8140E00E94380948
:101900000F900F900F900F900F90CF91DF9108954F
:10191000DF93CF9300D000D0CDB7DEB789836A8341
:1019200089818430B8F48A81282F30E03C832B836E
:101930008B819C81009751F02B813C8121303105B6
:1019400049F4898161E00E94480A04C0898160E00D
:101950000E94480A0F900F900F900F90CF91DF9147
:101960000895DF93CF9300D000D000D0CDB7DEB77D
:101970009E838D8383E065E041E00E945B078D815B
:101980009E81CC01A0E0B0E028EE33E040E050E0E2
:10199000BC01CD010E944214DC01CB018459914469
:1019A000AD4FBF4F24EB30E040E050E0BC01CD0133
:1019B0000E946114DA01C90189839A83AB83BC83D5
:1019C00089819A816FE17EE40E94700626960FB6A7
:1019D000F894DEBF0FBECDBFCF91DF910895DF93A6
:1019E000CF9300D000D000D0CDB7DEB79E838D83DB
:1019F00083E064E041E00E945B078D819E81CC0121
:101A0000A0E0B0E028EE33E040E050E0BC01CD01C2
:101A10000E944214DC01CB0184599144AD4FBF4F69
:101A200024EB30E040E050E0BC01CD010E946114A5
:101A3000DA01C90189839A83AB83BC8389819A8146
:101A40006FE17EE40E948B0626960FB6F894DEBF07
:101A50000FBECDBFCF91DF9108950F931F93DF93FA
:101A6000CF93CDB7DEB7C654D0400FB6F894DEBFE3
:101A70000FBECDBF82E061E00E946B0883E060E0B2
:101A800041E00E945B0783E061E041E00E945B0768
:101A900083E062E041E00E945B07FE01ED5BFF4FE7
:101AA00080E090E0ACE0B2E480839183A283B383D2
:101AB0008E01015C1F4FFE01ED5BFF4F6081718164
:101AC0008281938120E030E04AEF54E40E941F02BB
:101AD000DC01CB01F80180839183A283B383FE01F3
:101AE000FF96608171818281938120E030E040E83F
:101AF0005FE30E94790388232CF481E090E09EAF9D
:101B00008DAF46C0FE01FF96608171818281938115
:101B100020E03FEF4FE757E40E941903181664F5E1
:101B2000FE01ED5BFF4F608171818281938120E036
:101B300030E040E251E40E941F02DC01CB01BC0115
:101B4000CD010E944900DC01CB019EAF8DAF0FC0DB
:101B500088EC90E09CAF8BAF8BAD9CAD0197F1F71B
:101B60009CAF8BAF8DAD9EAD01979EAF8DAF8DAD10
:101B70009EAD009769F716C0FE01FF9660817181E6
:101B8000828193810E944900DC01CB019EAF8DAF21
:101B90008DAD9EAD9AAF89AF89AD9AAD0197F1F742
:101BA0009AAF89AF88E30E94B20F80E090E0A0E88E
:101BB000BFE38DAB9EABAFABB8AF6DA97EA98FA9CC
:101BC00098AD20E030E04AEF54E40E941F02DC01AF
:101BD000CB0189AB9AABABABBCAB69A97AA98BA99A
:101BE0009CA920E030E040E85FE30E94790388236D
:101BF0002CF481E090E098AB8FA73FC069A97AA947
:101C00008BA99CA920E03FEF4FE757E40E941903FE
:101C100018164CF56DA97EA98FA998AD20E030E08B
:101C200040E251E40E941F02DC01CB01BC01CD0166
:101C30000E944900DC01CB0198AB8FA70FC088EC54
:101C400090E09EA78DA78DA59EA50197F1F79EA771
:101C50008DA78FA598A9019798AB8FA78FA598A955
:101C6000009769F714C069A97AA98BA99CA90E9459
:101C70004900DC01CB0198AB8FA78FA598A99CA741
:101C80008BA78BA59CA50197F1F79CA78BA78CE050
:101C90000E94B20F80E090E0A0E8BFE38FA398A776
:101CA000A9A7BAA76FA178A589A59AA520E030E0D9
:101CB0004AEF54E40E941F02DC01CB018BA39CA3DA
:101CC000ADA3BEA36BA17CA18DA19EA120E030E0BD
:101CD00040E85FE30E94790388232CF481E090E0E0
:101CE0009AA389A33FC06BA17CA18DA19EA120E0F6
:101CF0003FEF4FE757E40E94190318164CF56FA108
:101D000078A589A59AA520E030E040E251E40E9440
:101D10001F02DC01CB01BC01CD010E944900DC01A6
:101D2000CB019AA389A30FC088EC90E098A38F8F72
:101D30008F8D98A10197F1F798A38F8F89A19AA110
:101D400001979AA389A389A19AA1009769F714C062
:101D50006BA17CA18DA19EA10E944900DC01CB0159
:101D60009AA389A389A19AA19E8F8D8F8D8D9E8D17
:101D70000197F1F79E8F8D8F81E00E94B20F80E076
:101D800090E0A0E0B0E4898F9A8FAB8FBC8F698D13
:101D90007A8D8B8D9C8D20E030E04AEF54E40E94D8
:101DA0001F02DC01CB018D8B9E8BAF8BB88F6D89B1
:101DB0007E898F89988D20E030E040E85FE30E94C3
:101DC000790388232CF481E090E09C8B8B8B3FC0BF
:101DD0006D897E898F89988D20E03FEF4FE757E42A
:101DE0000E94190318164CF5698D7A8D8B8D9C8D88
:101DF00020E030E040E251E40E941F02DC01CB0110
:101E0000BC01CD010E944900DC01CB019C8B8B8B76
:101E10000FC088EC90E09A8B898B89899A89019709
:101E2000F1F79A8B898B8B899C8901979C8B8B8B83
:101E30008B899C89009769F714C06D897E898F8989
:101E4000988D0E944900DC01CB019C8B8B8B8B8988
:101E50009C89988B8F878F8598890197F1F7988B4C
:101E60008F8786E00E94B20F80E090E0A0E8BFE399
:101E70008B879C87AD87BE876B857C858D859E858E
:101E800020E030E04AEF54E40E941F02DC01CB0165
:101E90008F839887A987BA876F81788589859A8586
:101EA00020E030E040E85FE30E94790388232CF4CF
:101EB00081E090E09E838D833FC06F817885898526
:101EC0009A8520E03FEF4FE757E40E941903181668
:101ED0004CF56B857C858D859E8520E030E040E269
:101EE00051E40E941F02DC01CB01BC01CD010E9424
:101EF0004900DC01CB019E838D830FC088EC90E00C
:101F00009C838B838B819C810197F1F79C838B83CE
:101F10008D819E8101979E838D838D819E81009707
:101F200069F714C06F81788589859A850E94490078
:101F3000DC01CB019E838D838D819E819A83898371
:101F400089819A810197F1F79A838983CA5BDF4F70
:101F50000FB6F894DEBF0FBECDBFCF91DF911F91BA
:101F60000F910895DF93CF93CDB7DEB72F970FB6BC
:101F7000F894DEBF0FBECDBF8F8783E060E040E006
:101F80000E94380983E061E040E00E94380982E065
:101F90006F850E94480A83E062E041E00E943809B0
:101FA00080E090E0A0E0B0E48B879C87AD87BE879F
:101FB0006B857C858D859E8520E030E04AEF54E47A
:101FC0000E941F02DC01CB018F839887A987BA8703
:101FD0006F81788589859A8520E030E040E85FE36D
:101FE0000E94790388232CF481E090E09E838D8306
:101FF0003FC06F81788589859A8520E03FEF4FE764
:1020000057E40E94190318164CF56B857C858D8565
:102010009E8520E030E040E251E40E941F02DC0196
:10202000CB01BC01CD010E944900DC01CB019E83A4
:102030008D830FC088EC90E09C838B838B819C8187
:102040000197F1F79C838B838D819E8101979E83FD
:102050008D838D819E81009769F714C06F8178858B
:1020600089859A850E944900DC01CB019E838D837E
:102070008D819E819A83898389819A810197F1F765
:102080009A83898383E062E040E00E9438092F96BA
:102090000FB6F894DEBF0FBECDBFCF91DF9108958C
:1020A000DF93CF93CDB7DEB72F970FB6F894DEBF8F
:1020B0000FBECDBF8F8783E060E041E00E9438090A
:1020C00083E061E040E00E94380982E06F850E9471
:1020D000480A83E062E041E00E94380980E090E035
:1020E000A0E8BFE38B879C87AD87BE876B857C8527
:1020F0008D859E8520E030E04AEF54E40E941F0267
:10210000DC01CB018F839887A987BA876F81788597
:1021100089859A8520E030E040E85FE30E947903FA
:1021200088232CF481E090E09E838D833FC06F81F3
:10213000788589859A8520E03FEF4FE757E40E9434
:10214000190318164CF56B857C858D859E8520E0DE
:1021500030E040E251E40E941F02DC01CB01BC01EF
:10216000CD010E944900DC01CB019E838D830FC00D
:1021700088EC90E09C838B838B819C810197F1F7A5
:102180009C838B838D819E8101979E838D838D811E
:102190009E81009769F714C06F81788589859A853B
:1021A0000E944900DC01CB019E838D838D819E813D
:1021B0009A83898389819A810197F1F79A83898328
:1021C00083E062E040E00E9438092F960FB6F89451
:1021D000DEBF0FBECDBFCF91DF910895DF93CF93C8
:1021E00000D00F92CDB7DEB79B838A8319821DC0C2
:1021F0008981282F30E08A819B81FC01E20FF31F47
:1022000080810E94501089818F5F8983898180310C
:1022100029F481E060E00E94951107C08981803235
:1022200021F480E060E00E9495118981282F30E040
:102230008A819B81FC01E20FF31F80818823C1F614
:102240000F900F900F90CF91DF9108950F931F93F0
:10225000DF93CF93CDB7DEB76B970FB6F894DEBFA1
:102260000FBECDBF688F798F8A8F9B8F1B822DC049
:102270008B81082F10E0888D998DAA8DBB8D2AE067
:1022800030E040E050E0BC01CD010E946114DC016F
:10229000CB01282FCE010496FC01E00FF11F208313
:1022A000888D998DAA8DBB8D2AE030E040E050E00A
:1022B000BC01CD010E946114DA01C901888F998F98
:1022C000AA8FBB8F8B818F5F8B83888D998DAA8D11
:1022D000BB8D0097A105B10559F68B8181508B8389
:1022E0008B81882F90E09A83898310C029813A815D
:1022F000CE010496FC01E20FF31F8081805D0E94F5
:10230000501089819A8101979A83898389819A8162
:10231000992364F76B960FB6F894DEBF0FBECDBF5E
:10232000CF91DF911F910F910895DF93CF9300D04C
:1023300000D0CDB7DEB789836A8389818230D8F433
:102340008A818031C0F48981282F30E03C832B833F
:102350008B819C81009731F02B813C8121303105AC
:1023600031F009C08A8180580E94B20F04C08A816E
:1023700080540E94B20F0F900F900F900F90CF914A
:10238000DF910895DF93CF9300D000D0CDB7DEB7B3
:102390008A837C836B838A810E94B20F19820EC06C
:1023A0008981282F30E08B819C81FC01E20FF31F93
:1023B00080810E94501089818F5F89838981883054
:1023C00078F30F900F900F900F90CF91DF910895B9
:1023D000DF93CF9300D00F92CDB7DEB789836A83A6
:1023E0004B838A816B810E94951189810E945010D4
:1023F0000F900F900F90CF91DF910895DF93CF93BF
:10240000CDB7DEB781E00E94B20F80E060E00E94AD
:102410009511CF91DF910895DF93CF93CDB7DEB7BC
:1024200087E00E94B20FCF91DF910895DF93CF93A1
:10243000CDB7DEB785E00E94B20FCF91DF9108954E
:10244000DF93CF93CDB7DEB7AF970FB6F894DEBF6B
:102450000FBECDBF80E061E00E946B0883E063E0C7
:1024600041E00E945B0783E066E040E00E945B077A
:1024700083E067E040E00E945B070E94A3050E94A2
:102480002D0D0E94291480E090E0AAEFB3E48FA301
:1024900098A7A9A7BAA76FA178A589A59AA520E0B2
:1024A00030E04AEF54E40E941F02DC01CB018BA311
:1024B0009CA3ADA3BEA36BA17CA18DA19EA120E096
:1024C00030E040E85FE30E94790388232CF481E048
:1024D00090E09AA389A33FC06BA17CA18DA19EA18E
:1024E00020E03FEF4FE757E40E94190318164CF520
:1024F0006FA178A589A59AA520E030E040E251E4DB
:102500000E941F02DC01CB01BC01CD010E944900E9
:10251000DC01CB019AA389A30FC088EC90E098A3BB
:102520008F8F8F8D98A10197F1F798A38F8F89A135
:102530009AA101979AA389A389A19AA1009769F703
:1025400014C06BA17CA18DA19EA10E944900DC0159
:10255000CB019AA389A389A19AA19E8F8D8F8D8D7E
:102560009E8D0197F1F79E8F8D8F0E94FE1180E066
:1025700060E00E94951180E690E00E94EE1081E0FC
:1025800060E00E94951181E790E00E94EE101FA686
:102590001EA61BA683E066E00E948C0A8DA78DA56F
:1025A000813009F0A6C08FA5882309F0A2C08BA5B1
:1025B000843008F09EC080E06BA541E00E9438099D
:1025C0008BA58F5F8BA780E06AE00E9495118BA599
:1025D000805D0E94501081E08FA78BA5843071F43C
:1025E0000E94FE1182E890E00E94EE1081E060E01F
:1025F0000E94951183E990E00E94EE108AE590E038
:102600000E94B10C80E090E0AAEFB3E4898F9A8F2A
:10261000AB8FBC8F698D7A8D8B8D9C8D20E030E0E7
:102620004AEF54E40E941F02DC01CB018D8B9E8B8C
:10263000AF8BB88F6D897E898F89988D20E030E0CF
:1026400040E85FE30E94790388232CF481E090E066
:102650009C8B8B8B3FC06D897E898F89988D20E004
:102660003FEF4FE757E40E94190318164CF5698DA8
:102670007A8D8B8D9C8D20E030E040E251E40E9409
:102680001F02DC01CB01BC01CD010E944900DC012D
:10269000CB019C8B8B8B0FC088EC90E09A8B898B45
:1026A00089899A890197F1F79A8B898B8B899C8903
:1026B00001979C8B8B8B8B899C89009769F714C041
:1026C0006D897E898F89988D0E944900DC01CB013C
:1026D0009C8B8B8B8B899C89988B8F878F85988916
:1026E0000197F1F7988B8F8780E090E00E94B10C02
:1026F00004C08DA5882309F41FA683E067E00E942B
:102700008C0A8CA78CA5813009F09DC08EA58823EA
:1027100009F099C08BA5882309F495C08BA5815039
:102720008BA780E06BA540E00E94380980E06AE05A
:102730000E9495118BA5805D0E94501081E08EA7AC
:1027400081E060E00E94951181E790E00E94EE1028
:102750008AE590E00E94EF0C80E090E0AAEFB3E4FD
:102760008B879C87AD87BE876B857C858D859E8595
:1027700020E030E04AEF54E40E941F02DC01CB016C
:102780008F839887A987BA876F81788589859A858D
:1027900020E030E040E85FE30E94790388232CF4D6
:1027A00081E090E09E838D833FC06F81788589852D
:1027B0009A8520E03FEF4FE757E40E94190318166F
:1027C0004CF56B857C858D859E8520E030E040E270
:1027D00051E40E941F02DC01CB01BC01CD010E942B
:1027E0004900DC01CB019E838D830FC088EC90E013
:1027F0009C838B838B819C810197F1F79C838B83D6
:102800008D819E8101979E838D838D819E8100970E
:1028100069F714C06F81788589859A850E9449007F
:10282000DC01CB019E838D838D819E819A83898378
:1028300089819A810197F1F79A83898380E090E0FA
:102840000E94EF0CA7CE8CA5882309F0A3CE1EA66C
:10285000A1CEDF93CF93CDB7DEB70E94FE1180E00B
:1028600061E00E94951183EA90E00E94EE1081E001
:1028700060E00E94951182EB90E00E94EE10CF91F3
:10288000DF910895629FD001739FF001829FE00D58
:10289000F11D649FE00DF11D929FF00D839FF00DDF
:1028A000749FF00D659FF00D9927729FB00DE11D8B
:1028B000F91F639FB00DE11DF91FBD01CF01112468
:1028C0000895A1E21A2EAA1BBB1BFD010DC0AA1F71
:1028D000BB1FEE1FFF1FA217B307E407F50720F089
:1028E000A21BB30BE40BF50B661F771F881F991F04
:1028F0001A9469F760957095809590959B01AC014D
:10290000BD01CF0108952F923F924F925F926F9237
:102910007F928F929F92AF92BF92CF92DF92EF926F
:10292000FF920F931F93CF93DF93CDB7DEB7CA1BF0
:10293000DB0B0FB6F894DEBF0FBECDBF09942A881B
:10294000398848885F846E847D848C849B84AA84C3
:10295000B984C884DF80EE80FD800C811B81AA8150
:10296000B981CE0FD11D0FB6F894DEBF0FBECDBF1B
:08297000ED010895F894FFCF7A
:1029780054686572652061726520302063617273E6
:1029880000676172616765206861732073706163B5
:102998006500746865726520617265203420636122
:1029A80072730067617261676520206973206675BC
:1029B8006C6C002057656C636F6D6520546F204DFB
:1029C80059002020536D61727420476172616765F8
:0C29D800202000000000000000000000B3
:00000001FF
